{
  "_format": "hh-sol-artifact-1",
  "contractName": "Crowdfunding",
  "sourceName": "contracts/Crowdfunding.sol",
  "abi": [
    {
      "inputs": [
        {
          "internalType": "uint256",
          "name": "_goalAmount",
          "type": "uint256"
        }
      ],
      "stateMutability": "nonpayable",
      "type": "constructor"
    },
    {
      "inputs": [],
      "name": "contribute",
      "outputs": [],
      "stateMutability": "payable",
      "type": "function"
    },
    {
      "inputs": [
        {
          "internalType": "address",
          "name": "",
          "type": "address"
        }
      ],
      "name": "contributions",
      "outputs": [
        {
          "internalType": "uint256",
          "name": "",
          "type": "uint256"
        }
      ],
      "stateMutability": "view",
      "type": "function"
    },
    {
      "inputs": [
        {
          "internalType": "address",
          "name": "contributor",
          "type": "address"
        }
      ],
      "name": "getContribution",
      "outputs": [
        {
          "internalType": "uint256",
          "name": "",
          "type": "uint256"
        }
      ],
      "stateMutability": "view",
      "type": "function"
    },
    {
      "inputs": [],
      "name": "goalAmount",
      "outputs": [
        {
          "internalType": "uint256",
          "name": "",
          "type": "uint256"
        }
      ],
      "stateMutability": "view",
      "type": "function"
    },
    {
      "inputs": [],
      "name": "owner",
      "outputs": [
        {
          "internalType": "address",
          "name": "",
          "type": "address"
        }
      ],
      "stateMutability": "view",
      "type": "function"
    },
    {
      "inputs": [],
      "name": "totalRaised",
      "outputs": [
        {
          "internalType": "uint256",
          "name": "",
          "type": "uint256"
        }
      ],
      "stateMutability": "view",
      "type": "function"
    },
    {
      "inputs": [],
      "name": "withdraw",
      "outputs": [],
      "stateMutability": "nonpayable",
      "type": "function"
    }
  ],
  "bytecode": "0x608060405234801561001057600080fd5b506040516107e63803806107e6833981810160405281019061003291906100ba565b336000806101000a81548173ffffffffffffffffffffffffffffffffffffffff021916908373ffffffffffffffffffffffffffffffffffffffff16021790555080600181905550506100e7565b600080fd5b6000819050919050565b61009781610084565b81146100a257600080fd5b50565b6000815190506100b48161008e565b92915050565b6000602082840312156100d0576100cf61007f565b5b60006100de848285016100a5565b91505092915050565b6106f0806100f66000396000f3fe6080604052600436106100705760003560e01c806342e94c901161004e57806342e94c90146100f45780638da5cb5b14610131578063c5c4744c1461015c578063d7bb99ba1461018757610070565b806321eff7fc146100755780632636b945146100b25780633ccfd60b146100dd575b600080fd5b34801561008157600080fd5b5061009c60048036038101906100979190610477565b610191565b6040516100a991906104bd565b60405180910390f35b3480156100be57600080fd5b506100c76101da565b6040516100d491906104bd565b60405180910390f35b3480156100e957600080fd5b506100f26101e0565b005b34801561010057600080fd5b5061011b60048036038101906101169190610477565b61031e565b60405161012891906104bd565b60405180910390f35b34801561013d57600080fd5b50610146610336565b60405161015391906104e7565b60405180910390f35b34801561016857600080fd5b5061017161035a565b60405161017e91906104bd565b60405180910390f35b61018f610360565b005b6000600360008373ffffffffffffffffffffffffffffffffffffffff1673ffffffffffffffffffffffffffffffffffffffff168152602001908152602001600020549050919050565b60015481565b60008054906101000a900473ffffffffffffffffffffffffffffffffffffffff1673ffffffffffffffffffffffffffffffffffffffff163373ffffffffffffffffffffffffffffffffffffffff161461026e576040517f08c379a00000000000000000000000000000000000000000000000000000000081526004016102659061055f565b60405180910390fd5b60015460025410156102b5576040517f08c379a00000000000000000000000000000000000000000000000000000000081526004016102ac906105cb565b60405180910390fd5b60008054906101000a900473ffffffffffffffffffffffffffffffffffffffff1673ffffffffffffffffffffffffffffffffffffffff166108fc479081150290604051600060405180830381858888f1935050505015801561031b573d6000803e3d6000fd5b50565b60036020528060005260406000206000915090505481565b60008054906101000a900473ffffffffffffffffffffffffffffffffffffffff1681565b60025481565b600034116103a3576040517f08c379a000000000000000000000000000000000000000000000000000000000815260040161039a90610637565b60405180910390fd5b34600360003373ffffffffffffffffffffffffffffffffffffffff1673ffffffffffffffffffffffffffffffffffffffff16815260200190815260200160002060008282546103f29190610686565b92505081905550346002600082825461040b9190610686565b92505081905550565b600080fd5b600073ffffffffffffffffffffffffffffffffffffffff82169050919050565b600061044482610419565b9050919050565b61045481610439565b811461045f57600080fd5b50565b6000813590506104718161044b565b92915050565b60006020828403121561048d5761048c610414565b5b600061049b84828501610462565b91505092915050565b6000819050919050565b6104b7816104a4565b82525050565b60006020820190506104d260008301846104ae565b92915050565b6104e181610439565b82525050565b60006020820190506104fc60008301846104d8565b92915050565b600082825260208201905092915050565b7f4f6e6c79206f776e65722063616e207769746864726177000000000000000000600082015250565b6000610549601783610502565b915061055482610513565b602082019050919050565b600060208201905081810360008301526105788161053c565b9050919050565b7f476f616c206e6f74207265616368656420796574000000000000000000000000600082015250565b60006105b5601483610502565b91506105c08261057f565b602082019050919050565b600060208201905081810360008301526105e4816105a8565b9050919050565b7f4d7573742073656e6420736f6d65206574686572000000000000000000000000600082015250565b6000610621601483610502565b915061062c826105eb565b602082019050919050565b6000602082019050818103600083015261065081610614565b9050919050565b7f4e487b7100000000000000000000000000000000000000000000000000000000600052601160045260246000fd5b6000610691826104a4565b915061069c836104a4565b92508282019050808211156106b4576106b3610657565b5b9291505056fea2646970667358221220c31318bb1d2e4c4b1ca0cf830580c457a06ddb3bc9ceb8d22ade21470bce28cc64736f6c63430008140033",
  "linkReferences": {},
  "deployedLinkReferences": {}
}